:020000040000FA
:10000000C8040020C1000000CB000000CD000000AB
:1000100000000000000000000000000000000000E0
:10002000000000000000000000000000CF00000001
:100030000000000000000000D1000000D30000001C
:100040001F060000D7000000D9000000DB00000000
:10005000DD000000DF000000E1000000E300000020
:1000600091060000E700000000000000E900000029
:10007000EB000000ED00000081050000F100000031
:10008000F3000000F5000000F7000000F900000098
:10009000FB000000FD000000FF0000000101000067
:1000A0000301000005010000070100000901000034
:1000B0000B0100000D0100000F0100001101000004
:1000C00014481549016015480047FEE7FEE7FEE7C2
:1000D000FEE7FEE7FEE7FEE7FEE7FEE7FEE7FEE7F8
:1000E000FEE7FEE7FEE7FEE7FEE7FEE7FEE7FEE7E8
:1000F000FEE7FEE7FEE7FEE7FEE7FEE7FEE7FEE7D8
:10010000FEE7FEE7FEE7FEE7FEE7FEE7FEE7FEE7C7
:10011000FEE700000CA004400000050021010000E3
:100120000348854601F082FE004800473F02000078
:10013000C804002070B50024FE4D6865A965002044
:10014000E865FD4EE96D481CE865686D415C304628
:1001500001F040FA641C082CF4DB4421304601F025
:10016000F0FA70BDF0B40021F24AC943D1810027F2
:1001700017821446803427602368D589C15C6940A2
:10018000D181D767ED4DD189CE0703D049086940A9
:10019000D18101E04908D181D16F491CD16708297B
:1001A000F1DB5B1C2360082BE6DBD1890B0A09021B
:1001B00019431182DF4B10339367E14902780A70CB
:1001C00042784A7082788A70C278CA7002790A715D
:1001D00042794A7182798A71C079C87158780872F7
:1001E00018784872F0BC0A21D548A3E77FB5D54CF2
:1001F00001231A460F21204600F04EFF0023012262
:100200000E21204600F048FFE1200002009000206F
:1002100069460871487188710322CA710872487270
:1002200001248C720A22CA720873C34D284601F059
:100230004FF9284601F0C8F9C34804607FBD86B075
:1002400000F047FB0027C14C00973B4601220321E9
:100250002046019700F04AFEBE48BD490161811564
:10026000B94801608005416A890701D502214162D0
:10027000B94D6E220021284601F09BFA284601F074
:10028000D6FAFFF7B3FF0023009701221946204654
:10029000019700F02BFEAB4D0023103D07220E21ED
:1002A000284600F0F9FE002307220B21284600F023
:1002B000F3FE002307220821284600F0EDFEA14DA1
:1002C000002307220921284600F0E6FE072200232A
:1002D0001146284600F0E0FE0023072206212846AA
:1002E00000F0DAFE002307220521284600F0D4FEA4
:1002F000002307220421284600F0CEFE0023072217
:100300000321284600F0C8FE8E4E002370360722D7
:100310000921304600F0C0FE00231A46194628463F
:1003200000F0BAFE00231A460421304600F0B4FE65
:1003300000231A460821304600F0AEFE90206946A0
:1003400008720620487231208872844888818F7331
:10035000032008828F7428158882CF82804D02A9DD
:10036000284600F027FB284600F081FC7D480097D6
:100370007D4D026832230021284600F0EBFE28461E
:1003800000F06BFF6B4C0321704800F018FE2078E2
:100390000128F8D1206B01F053FBA16A0D4601F052
:1003A0006BFA0646E063606B01F04AFB294601F0F8
:1003B00063FA2064A06B01F043FB294601F05CFA6C
:1003C00060646A4D3046294601F093FA01F084FBDF
:1003D00001F0B4FD664E0022334601F0C9FA01F087
:1003E0008FFB01F071FDA0642946206C01F081FAB9
:1003F00001F072FB01F0A2FD0022334601F0B8FAD1
:1004000001F07EFB01F060FDE0642946606C01F0C4
:1004100070FA01F061FB01F091FD0022334601F01A
:10042000A7FA01F06DFB01F04FFD20655149A26C68
:100430008A4200DDA164E26C8A4200DDE164884208
:1004400000DD2165A06C01F015FBA081E06C01F0DE
:1004500011FB6081206D01F00DFB20812763676334
:10046000A76334490C31E1668A1E22670B1F63675C
:100470005525084678300570AA2545700D78857099
:100480004978C17011780171517841711978817181
:100490005978C171FFF766FE676227702E4801F038
:1004A000CBF970E7F0B5069F059E8C469646012174
:1004B000C903CC1A1D4600214543715E1D486143A6
:1004C000426949198918C91309B231806143491930
:1004D000CA17520C5218D20BD203891A416100215B
:1004E000795E22464A431946654669438569521832
:1004F0005219D21312B23A8062435118CA17520CE1
:100500005218D20BD203891A8161079900228A5EA0
:100510002146514372465343C269C9188918C91309
:10052000079A09B211804C43E118CA17520C5218AD
:10053000D20B21E0000000200020044001A00000B8
:10054000B800002010000A4000E100E00048004030
:100550006202000000A00A4000080A4057040000A0
:100560000090044090000020406804400000C84310
:10057000006A084100FF7F47D203891AC161F0BDBC
:10058000FEB50127484E3F05F7600221304600F0D6
:10059000B7FB04460121304600F0B2FB201A434C61
:1005A00020664021304600F0ABFB05460421304672
:1005B00000F0A6FB281A60663115304600F0A0FB5B
:1005C00005461021304600F09BFB2A1AA266A01DAA
:1005D000811E031F009301910290236A616E206EB9
:1005E000FFF760FF0220205E216B4043401820632C
:1005F0000420205E616B4043401860630620205E4B
:10060000A16B40434018A063606A401C6062F760C1
:100610000146FF39913901D101202070FEBD70B52E
:10062000234C0421204601F09CF8002817D01F4DD0
:100630000AE0E96DA86D81420CD2481CE865686D3E
:10064000415C204600F0C6FF204600F0D9FF00289C
:10065000EFD070BD0421204601F077F870BD402135
:10066000204601F07EF80028F8D04021204601F015
:100670006CF870BD70B504460D4DE1B2284600F02F
:10068000A9FF284600F0B2FF0028FAD1204670BD2D
:1006900010B50849012048610448C06A8047032119
:1006A000054800F086FC10BD0090044000000020CA
:1006B0000020044000A00A400048004010B501227C
:1006C00092071068AC49AD4CC00701D0216021E011
:1006D0001068C006400F06D0012808D0032810D0AB
:1006E000042811D10FE07D20000220600CE0A44816
:1006F0000068800701D5216000E02160A1482060EA
:1007000002E0216000E021601068800702D52068C7
:10071000C00820609C49206801F098F8606010BD16
:10072000974901204039086081070A6802430A603E
:10073000704700B5FFF7F4FF914801210161000601
:10074000416001681C2291430160016801600168F9
:10075000022291430160016849084900016000BD1F
:1007600010B58A4802690321C9028A430261884898
:1007700002698A430261854C0023F03C07220B2169
:10078000204600F089FC002307220C21204600F0BF
:1007900083FC7B494039086A7E4A10430862002086
:1007A0007D21C90000BF401C8842FBD3744801680A
:1007B0000222914301604168774A114041604168DB
:1007C000764A114341600168042291430160C16887
:1007D0000029FCD0016801221143016010BD10B551
:1007E0000446FFF79DFFFFF7BBFF0120810748602C
:1007F00008681C22904308600868042210430860BF
:100800000222002C03D008681043086002E0086848
:1008100090430860086840084000086010BD70B54B
:100820000446FFF77DFF594801690322D202914334
:1008300001615748016991430161544D0023F03D26
:1008400007220B21284600F027FC002307220C2159
:10085000284600F021FC4A484038016A4D4A1143BD
:10086000016200217D20C00000BF491C8142FBD3F2
:1008700001218807416001681C22914301600168E1
:100880000C22114301600222002C03D001681143A5
:10089000016002E001689143016001684908490074
:1008A000016070BD00B5FFF73BFF01218807416083
:1008B00001681C229143016001681022114301600C
:1008C0000168022211430160016849084900016082
:1008D00000BD10B50120800781684211114381607D
:1008E0002F4CE069400F052805D1E0692449C0007C
:1008F000C008403988605A2000F0D9FA0020FFF77C
:100900006EFFFFF7DBFE1D481F49006800F09EFFE9
:1009100000F0CDFA052123480904C16000BF00BFE3
:1009200000BF00BF00BF00BF00BF03210904C160BA
:10093000174801690322920291430161134801693A
:1009400005221203914301610D48416B0909090118
:100950004163416BE2681207120F11434163416B1F
:100960000F22120591434163416BE2681203120F9B
:1009700012051143416310BD001BB7008C0000201D
:1009800040A00A400087930340420F0000010A4044
:1009900000020A402200070000FEE0FC1E000300E7
:1009A0008000004000A0044001680122120391432E
:1009B00001607047F8B503460D46F84F3868F84EA9
:1009C000000ED32801D1012030603068002807D004
:1009D000A878410604D58006800EA87001207060BA
:1009E000F048F14C1818009003D1A0682111084379
:1009F000A0601846FFF7D8FF21680F20000481434C
:100A00002160206829780907090B084320601C46EB
:100A1000FF348134A06A18218843A062A06A297833
:100A20008906890FC9000843A062606A7F21090610
:100A3000884360622878697880094007090608437E
:100A4000616A08436062606AD84908406062606A0F
:100A5000A9780909490008436062A87803220009BF
:100A600000280ED03068002829D0706800281FD0D8
:100A700038680005000D306138680002000DF06034
:100A800020E00120B060B8690003010C3161B86951
:100A9000000DF0603768002F03D100040843606741
:100AA000A267606AA9780907090D0843606213E02C
:100AB000786980B230617869000CF06002E0786992
:100AC0006067A267206A0121090788432062206AC3
:100AD000A97809070843206229891846CA0480308A
:100AE000002A16DA0A0B0905090DC9432163016DB5
:100AF000AF4F39400165016DAF883F04394301654F
:100B0000016D090B09030165016DAF88394301656A
:100B100008E0CAB2016D090B09030165016DAF88D8
:100B2000394301651868A349084018601868A97915
:100B3000490508439103AA7A5203114308431860F8
:100B4000206A9D4908402062206A0F210904084359
:100B50002062002098609948D860A8898207C10760
:100B6000D20FC90F920011434207D20F1201114355
:100B70000207D20F92011143C206D20F1202114393
:100B80008206D20F920211434206D20F1203114382
:100B90000206D20F92031143C205D20F1204114371
:100BA0008205D20F920411434205D20F12050005AF
:100BB000C00F114380050143986801439960E8899B
:100BC0008207C107D20F890FD20011434207D20F0B
:100BD000520111430207D20FD2011143C206D20FB4
:100BE000520211438206D20FD20211434206D20FA3
:100BF000520311430206D20FD2031143C205D20F92
:100C0000520411438205D20FD20411434205D20F80
:100C100052050005C00F1143C00501439868014308
:100C200099603768002F09D0F06800F015FF644A1A
:100C3000644B00F09DFE00F031FFF060002F0AD001
:100C40007068002807D0606A584908406062606A8E
:100C50005D49084360620098002807D1A889E989A6
:100C6000084303D00120594980030860F8BD01689A
:100C70000122120311430160704701214160704756
:100C800041684908490041607047014600204029F9
:100C90002ED010DC082927D007DC012904D0022936
:100CA00020D0042900D10220704710291ED020290D
:100CB000FAD10520704701235B02CA1A99421BD062
:100CC00006DC802916D0FF390139F3D1082070479E
:100CD000FF3AFF3A023A11D0012189028A42F6D145
:100CE0000B20704701207047032070470420704795
:100CF0000620704707207047092070470A20704778
:100D000010B504460846FFF7C0FF00010119486905
:100D10000005000D01220A61214A1168002903D053
:100D20001169884201D2002010BD401AD1684843A1
:100D3000800A27498842F7D9084610BD10B50446F5
:100D40000846FFF7A2FF000100190069C007C00FA5
:100D500010BD02468032136D1B0B1B031365136D10
:100D60000B43136501680160704710B504460846DF
:100D7000FFF78BFFA1684200012090400143A16072
:100D800010BD10B504460846FFF77FFFA16842007A
:100D9000012090408143A16010BD00008000004010
:100DA000940000200070FBBF00000040F9F8FFFF36
:100DB000FFFF00F0FF1F1EFEFF00F0FFFFFF070018
:100DC000FCA9F1D24D62F03F0407000000E100E011
:100DD000FF0F000010B504460846FFF756FF41001C
:100DE00001208840E060D7E710B504460846FFF7C9
:100DF0004CFFE168420001209040014201D00120F7
:100E0000CAE70020C8E710B504460846FFF73DFFD3
:100E1000A1684000401C012282401143A160BBE751
:100E200010B504460846FFF730FFA1684000401C9B
:100E3000012282409143A160AEE710B50446084606
:100E4000FFF723FF4000401C01218140E160A3E740
:100E500010B504460846FFF718FFE1684000401C43
:100E600001228240114201D0012095E7002093E742
:100E700010B572B6800A194A174952689047184847
:100E8000C168012292041143C16062B6002010BD06
:100E900010B572B65208114B9B6898471048C1684C
:100EA000012292041143C16062B6002010BD10B54A
:100EB00072B60C4B094A08491268212802D218461A
:100EC000904706E0422802D21846904701E00648C3
:100ED000904762B610BD0000ACFF110BA8000020C7
:100EE00000A004404192080041A20800FFB581B073
:100EF00005460E461746654C6548610328180122D1
:100F0000002811D0CB14C01A0AD00F2292039042AD
:100F100010D188680222104388605C4C103409E0CC
:100F200088681043886005E0886810221043886054
:100F3000564C8034012300223146204600F0ACF8A4
:100F40000120B040012F1ED0696881436960049977
:100F500001291CD0E11DF9310A6882430A600A990F
:100F600001291AD0E11DFF31FA310A6882430A6073
:100F700001210B9A8902012A16D061180A6882435E
:100F80000A6005B0F0BD696801436960DFE7E11DF3
:100F9000F9310A6802430A60E1E7E11DFF31FA31E5
:100FA0000A6802430A60E3E761180A6802430A60BC
:100FB000E7E7026801238B401A430260704702682A
:100FC00001238B409A4302607047026801238B40E3
:100FD0005A4002607047006BC840C007C00F70479E
:100FE00010239B1A2B4ADA4003688A40134303609C
:100FF000704710239B1A274ADA4003688A409343BC
:101000000360704710239B1A224ADA4003688A4023
:1010100053400360704710239B1A1E4ADA40006B4E
:10102000C8401040704701228900081802647047C8
:101030000022890008180264704789000818016CB2
:101040000122511A0164704710239B1A114ADA4099
:1010500072B603688A401343036062B67047102378
:101060009B1A0C4ADA4072B603688A4093430360C5
:1010700062B6704710239B1A064ADA4072B60368BC
:101080008A405340036062B67047000000000A4087
:1010900000C0FFBFFFFF000070B50F25082909D26F
:1010A00006688C00A540AE4306600568A240154363
:1010B00005600AE046680C46083CA400A540AE4323
:1010C00046604568A240154345600324240201227E
:1010D0008A400019002B03D001681143016070BDE4
:1010E00001689143016070BD30B5F04A0224811A55
:1010F0000425EF4B904220D00BDCEE494018EE491E
:1011000012D0402815D0802802D10868A843086072
:1011100030BD402916D0802918D0C029F8D11868D0
:1011200008218843186030BD086840084000086006
:1011300030BD0868A043086030BD18684008400012
:10114000186030BD1868A043186030BD1868A84307
:10115000186030BDFFB581B00A9D04461746D549D9
:10116000D24E4942C8048C4206D0D4498C4203D0A6
:10117000D24940318C4205D181680122D20211430B
:10118000816012E0B4420BD0C84940318C4207D094
:10119000C64980318C4203D0C449C0318C4204D14D
:1011A000C168012292051143C1602046FFF79CFFF0
:1011B000A06800090001A060A06802990843A0602F
:1011C0007F1E27630498401E206001206061002D6F
:1011D00003D021690143216103E0206940084000F8
:1011E0002061A01BB44226D00DDCB248201816D0D6
:1011F00040281AD0802804D1002D02D01B2000F0F6
:101200004EF905B0F0BD40281BD080281FD0C02863
:10121000F7D1002DF5D0132000F041F9F1E7002DB2
:10122000EFD0012000F03BF9EBE7002DE9D00520DD
:1012300000F035F9E5E7002DE3D0102000F02FF99C
:10124000DFE7002DDDD0112000F029F9D9E7002DCE
:10125000D7D0122000F023F9D3E770B5934A0124C8
:10126000811A02250426924B90421FD00BDC914933
:101270004018914912D0402814D0802802D1086823
:101280003043086070BD402914D0802916D0C02991
:10129000F8D1186808210843186070BD0868204319
:1012A000086070BD08682843086070BD1868204356
:1012B000186070BD18682843186070BD1868304306
:1012C000186070BD01218161704700218161704704
:1012D000406870470169012211430161704701694B
:1012E0004908490001617047012141617047406927
:1012F000C007C00F704710B501620221002B03D058
:10130000C3690B43C36102E0C3698B43C36141619D
:10131000002A03D003690B43036102E003698B4396
:101320000361624BC11A984225D00CDC6149401818
:1013300015D0402819D0802804D1002A02D01B20C3
:1013400000F0ADF810BD40291BD080291FD0C02966
:10135000F8D1002AF6D0132000F0A1F810BD002A21
:10136000FCD0012000F09BF810BD002AFCD0052025
:1013700000F095F810BD002AFCD0102000F08FF886
:1013800010BD002AFCD0112000F089F810BD002A01
:10139000FCD0122000F083F810BDC16902229143F5
:1013A000C1617047002904D0C16901221143C161A4
:1013B00003E0C16949084900C161C16902221143C2
:1013C000C161704701627047006A7047016902227B
:1013D0001143016170470169022291430161704725
:1013E00002214161704740698007C00F704710B506
:1013F000182343611023002903D004691C430461AE
:1014000002E004699C4304610823002A03D00469B4
:101410001C43046102E004699C430461254B1143B1
:10142000C018002809D040280DD0802804D10029F8
:1014300002D01B2000F033F810BD0029FCD00120A1
:1014400000F02DF810BD0029FCD0052000F027F891
:1014500010BDC06A7047806A70470169102211434D
:1014600001617047016910229143016170471021A9
:10147000416170474069C006C00F7047016908228A
:10148000114301617047016908229143016170476E
:1014900008214161704740690007C00F7047C106CD
:1014A000C90E012088400649086070470088044042
:1014B000408C04400098FBBF406C044040680440EE
:1014C00000E100E04168012252029143416070470F
:1014D000F8B504460D46AF48261801208007C11410
:1014E000771A002E02D0002F09D104E08168402233
:1014F0001143816003E081688022114381602046AE
:10150000FFF7E0FFA068A4490840A060A34829684D
:10151000006800F09BF9401E0421C841A1680843FF
:10152000A06060683F218904884360606068297911
:10153000AA79890408436979C904920511430843CB
:101540006060E06880B2E060E879697A00040906CA
:101550000843E1680843E060E069000B0003E061D4
:10156000E069E97A0122120389180843E0616068A2
:101570008B49084060606068297A2A7B090108432A
:10158000A97A89009203114308436060854B0120CA
:10159000844A8033002E0BD0002F08D1287AA97AF4
:1015A0000843297B0843082100280BD01160F8BDAF
:1015B000297AAC7A21432C7B214301D01060F8BDFD
:1015C0001860F8BD1960F8BD41680122520211434C
:1015D00041607047016070470068C205D20D0A6023
:1015E000400501D502207047002070474068C007C1
:1015F000C017401C704740680007C017401C704768
:1016000040688007C00F704710B50446A068624A62
:101610001040A0606148006800F018F9401E0421E5
:10162000C841A1680843A06010BD10B581688068FA
:101630008904890B000F09185848491C006800F0FC
:1016400005F910BD10B543690524A34343614369FF
:1016500092000A431343436110BD40690006C00F66
:10166000704730B544697A25AC4344614469490008
:101670000C43D1001A0111430C43446130BD406951
:10168000C005C00F704770B5049D8469FF26B60081
:10169000B4438461491E89019B001943836919433E
:1016A000816101690523994301610169AB0013431D
:1016B0001943016170BD0169102211430161704736
:1016C00000698007C00F704700690007C00F7047AE
:1016D000FF2916D0CA1FFF3AF93A12D0FE2912D0BC
:1016E000CA1FFF3AF83A0ED0F8290ED00A46FF3A40
:1016F000F93A0AD080290AD00A46FF3A813A06D040
:10170000FEE7002104E0012102E0022100E00321C4
:1017100082680723DB059A438260826801230906F9
:10172000DB05C9180A43826070478168090201D548
:10173000002070478068400101D5022070470120D9
:10174000704742680A434260704742688A43426079
:101750007047490404D5C169012252031143C16194
:101760007047CA0602D5826852020ED44A0402D5D6
:101770008268920209D44A0702D58268920304D48F
:10178000490604D58068000101D50120704700207A
:101790007047000000E0FBBF00C0FF0F8C0000207E
:1017A000EBBFFFFF00E100E081684908490081606C
:1017B000704770B503460C46012080078168051507
:1017C00029438160016803263603B1430160016843
:1017D0004614314301601846FFF7E6FF98680F2171
:1017E0000902884398609868284398600420012182
:1017F0004602002C0ED09D6805439D605C60D96058
:10180000114806600220002A0BD0996801439960B4
:101810001A6070BD9968814399600B4880300660FA
:10182000F0E7996881439960641C1C6070BD816811
:1018300001221143816070475521016170470121E8
:10184000C1607047C068704700E100E030B50B46EA
:10185000014600202022012409E00D46D5409D428A
:1018600005D31D469540491B254695404019154610
:10187000521E002DF1DC30BD024670B54A40D30F38
:10188000DB0740002DD04A002AD0010E140E0002C2
:1018900012020919400A520A8418E5010446544309
:1018A000000A120A2E045043A4194219200CC54301
:1018B000AA18120C0125AD03521C521912047F39CB
:1018C000240400D0521C104301D44000491EC2B26F
:1018D0000C06C0092018401C4008802A02D003E0F2
:1018E000002070BD40084000002900DA00201843A5
:1018F00070BD70B502464A40D50F40004A00ED0762
:1019000040085208002814D0002A12D0C40DD30D6C
:1019100041020120C0055202490A520AE41A09187C
:1019200012187D34914201D3641C00E04900002C60
:1019300001DA002070BD0023914201D3891A0343CC
:10194000400849000028F7D100290AD0914202D16D
:101950000121C90705E0914201D2012101E00121E5
:10196000C943E005C018401900F0F7F870BD000049
:10197000F0B51FB488B00B99099800244840099924
:10198000C00F490049080991C0070B990090490010
:1019900049080B9109990898A64608431CD00B9951
:1019A0000A98084318D0099801244000420D4800C5
:1019B000410D099824050003000B204309900B9862
:1019C0000003000B20430B9050181C4940180022C4
:1019D00001901446104605E0002001460DB0F0BD10
:1019E000032801DA034600E003239C46C11A0AAE2D
:1019F0000AE05F0008ADED5B4F00F75B7D43002719
:101A0000AA187C41491C5B1E6145F2DD410004AB14
:101A10005A522104120C0A43240C401C0828DFDB14
:101A2000019802900099704601910090059B049ADC
:101A30000799069800F057F9D0E700000DFCFFFF6A
:101A4000C217C10F504010B54018CA079623002195
:101A500000F08BF810BD00000EB505490291002181
:101A600000910A460B46019100F03DF903B000BD1C
:101A700033040000410040020122400AD205090E51
:101A800080187F2901DA00207047962903DC96220E
:101A9000511AC84070479639884070474A00090378
:101AA0000123090B1B051943094B10B5520D9A422E
:101AB00001DA002010BD064B34339A4203DC9A1A37
:101AC00000F03AF810BD03495118884010BD0000DD
:101AD000FF030000CDFBFFFFC20FD207400040080C
:101AE0000BD0C10D0723DB01C91840020905400ACC
:101AF0001143C20840071143704700200146704758
:101B0000CB0FDB07490010B5490802460A4307D04E
:101B10000A0D07240903E401090B121B002A01DC4A
:101B2000002010BDC900440F0C43C100E018D205CD
:101B3000801800F012F810BD10B5202A04DB08460A
:101B4000203AD040002110BD0B46D340D040202485
:101B5000A21A91400843194610BD002904DA401C1E
:101B6000490001D140084000704770B40024050CC2
:101B700005D11024000402D1002921D01124050E22
:101B800001D100020834050F01D10001241D850F89
:101B900001D18000A41C002801DB4000641C002946
:101BA00008D020252E1B0D46F540A14000D0012174
:101BB0002943084301061B1B000ADB1D02D5002038
:101BC00070BC7047DB05181880180029F8DA401C33
:101BD0004900F5D170BC400840007047F8B5024696
:101BE0004A40D40F42004B0052085B089A4202D28E
:101BF0000246084611464A0023D0C30D4A00DDB212
:101C0000120EAD1A202D35DA49020126490AF605D1
:101C10008A19002C00D0524220214F1B1146B94096
:101C20002A411018C20D9A4221D0002C17D0012D44
:101C300008DCDA05801AD20F8019D207DBB2FFF771
:101C400094FFF8BDDA05801A012340001B06C01876
:101C500080185A428018CA0F1043490007E049080B
:101C6000C2071143DA05801A801940088018FFF76F
:101C700074FFF8BD61000122511A001BF7E7012231
:101C8000D2075140AAE70122D2075040A6E710B57B
:101C900041000DD04100090E962909DC7E290ADC9D
:101CA00007DB410205D0C00F7F21C007C9054018DE
:101CB00010BD002010BD9622541A20210A1B014697
:101CC0009140E040FFF749FFA04010BD10B5002B48
:101CD00008DA0024401C614192185B411A4301D18B
:101CE0004008400010BDF0B51FB482B005460C009E
:101CF00003D0084600F0BCF802E000F0B9F820304C
:101D0000024600902146284600F0A2F8049B059A5E
:101D100004460F4618431143084314D01846104395
:101D20001BD0009840210A1A18460599FFF704FFB6
:101D300005460E46009A0599049800F089F8084374
:101D400005D0012004E02046394607B0F0BD002050
:101D5000C11705430E432C43374300990E98630582
:101D6000401A7905E40A00220C43FD0A0A3002D524
:101D700000200146E9E70105101969410C9C0D9D01
:101D800000196941FFF7A2FFDFE7FEB500231A46FD
:101D90001B1A8A4103DB0020014603B0F0BD4A0054
:101DA0000D0301212D0B0905520D0D43D10702D161
:101DB00000186D41521E5110FF31FF3101310027D3
:101DC00004463E4638460097019102460121002014
:101DD0000905FFF7B1FEC3197141F8183246844670
:101DE0008E464A4161462846611A904104D36046B6
:101DF000241A954176461F46241900986D41401CCF
:101E000000903428E1DDF91930467041091BA841E2
:101E100003D20022D243134601E000221346019868
:101E20000105381C7141FFF751FFB6E7064C01254B
:101E3000064E05E0E36807CC2B430C3C9847103472
:101E4000B442F7D3FEF770F9841F0000A41F00000E
:101E500010B5202A04DB0146203A9140002010BD35
:101E6000914020239C1A0346E3401943904010BD43
:101E70002021020C01D010211046020A01D0104688
:101E80000839020901D01046091F820801D0104606
:101E9000891E420801D0881E7047081A704702E068
:101EA00008C8121F08C1002AFAD1704770470020E5
:101EB00001E001C1121F002AFBD1704701490860EF
:101EC00070470000B400002070B50546FFF7DFFE44
:101ED000044601462846FFF7D2FE7F263F22BF2355
:101EE000FF21F60512061B060906002D0CDA9842A2
:101EF00002D343008B420CD9904219DD4000884246
:101F000011D915E0044613E0984207D943008B42EB
:101F100004D831462046FFF7B2FEF3E7904207DBD4
:101F20004000884204D831462046FFF757FEE9E7D3
:101F300060004008E90FC907084370BDF8B50646C0
:101F40000C46FFF722FF051E0F4600D0012001437B
:101F500049000B484908411AC90F0DD0002E01D085
:101F6000012100E000210C4361004908401AC00F24
:101F700002D10120FFF7A2FF28463946F8BD000034
:101F80000000F07FA41F000000000020B800000047
:101F90009E1E00005C200000B8000020100400001D
:101FA000AE1E000000000000000000000000000065
:101FB0000000FFFF00000000000000000000000023
:101FC000000000000806000000000000E65CBE32D1
:101FD0000000000000000000000000000000000001
:101FE00000000000000000000000000000000000F1
:101FF00000000000000000000000000000000000E1
:1020000000000000000000000000000000000000D0
:1020100000000000000000000000000000000000C0
:1020200000000000000000000000000000000000B0
:10203000001BB7000C0000000000000000000000C2
:10204000000000000000000000000000C1040011BA
:0C20500001040011510400110000000008
:0400000500000121D5
:00000001FF
